{
  "_format": "hh-sol-artifact-1",
  "contractName": "Counter",
  "sourceName": "contracts/Counter.sol",
  "abi": [
    {
      "inputs": [],
      "name": "count",
      "outputs": [
        {
          "internalType": "uint256",
          "name": "",
          "type": "uint256"
        }
      ],
      "stateMutability": "view",
      "type": "function"
    },
    {
      "inputs": [],
      "name": "decreaseCount",
      "outputs": [],
      "stateMutability": "nonpayable",
      "type": "function"
    },
    {
      "inputs": [],
      "name": "getCount",
      "outputs": [
        {
          "internalType": "uint256",
          "name": "",
          "type": "uint256"
        }
      ],
      "stateMutability": "view",
      "type": "function"
    },
    {
      "inputs": [],
      "name": "increaseCount",
      "outputs": [],
      "stateMutability": "nonpayable",
      "type": "function"
    }
  ],
  "bytecode": "0x608060405234801561001057600080fd5b506102a8806100206000396000f3fe608060405234801561001057600080fd5b506004361061004c5760003560e01c806306661abd14610051578063a87d942c1461006f578063abd1b73d1461008d578063e834cbb314610097575b600080fd5b6100596100a1565b6040516100669190610143565b60405180910390f35b6100776100a7565b6040516100849190610143565b60405180910390f35b6100956100b0565b005b61009f6100cb565b005b60005481565b60008054905090565b60016000808282546100c2919061018d565b92505081905550565b600080541161010f576040517f08c379a00000000000000000000000000000000000000000000000000000000081526004016101069061021e565b60405180910390fd5b6001600080828254610121919061023e565b92505081905550565b6000819050919050565b61013d8161012a565b82525050565b60006020820190506101586000830184610134565b92915050565b7f4e487b7100000000000000000000000000000000000000000000000000000000600052601160045260246000fd5b60006101988261012a565b91506101a38361012a565b92508282019050808211156101bb576101ba61015e565b5b92915050565b600082825260208201905092915050565b7f63616e74206265206e6567617469766500000000000000000000000000000000600082015250565b60006102086010836101c1565b9150610213826101d2565b602082019050919050565b60006020820190508181036000830152610237816101fb565b9050919050565b60006102498261012a565b91506102548361012a565b925082820390508181111561026c5761026b61015e565b5b9291505056fea2646970667358221220869339a8da96a3f01d97cac7d8c59a10f96a3884a875d053f75fbe03d5b7376764736f6c63430008180033",
  "linkReferences": {},
  "deployedLinkReferences": {}
}